:20C4000001FF0106A0EF170113083F0000C033000000600011F200D0FF00060137485253C4
:20C4200054FF5353724356444D730602830000FFF00000E00000B6D20000B6E0000000007C
:14C440001402000000C40000142200003EC4000000200000B6
:20C45400F8E3000008E40000FCE3000074DA000000E4000004E40000F4E300000CE4000041
:14C47400F8E1000060D70000ECE30000F0E3000092DB000095
:20C48800C293D02139255F42D1213F80320030251F8335251F830C253F800C003F900A00A4
:20C4A80004283F80200019241F3D5F060018504FBAC48EC6000064C600003AC6000010C6E2
:20C4C8000000E4C50000B8C500008CC5000060C5000034C5000008C50000F2900B00D02174
:20C4E8000424F2405400CE210A3D3C40C4213D40D2213E400A00B013BCE3C243CE21FF3C66
:20C50800F2900B00D0210424F2405400CE21F73C3C40BA213D40D2213E400A00B013BCE314
:20C52800C243CE21B2D000020420E93CF2900B00D0210424F2405400CE21E13C3C40B021AD
:20C548003D40D2213E400A00B013BCE3C243CE21B2D000010420D33CF2900B00D021042429
:20C56800F2405400CE21CB3C3C40A6213D40D2213E400A00B013BCE3C243CE21B2D08000A4
:20C588000420BD3CF2900B00D0210424F2405400CE21B53C3C409C213D40D2213E400A0039
:20C5A800B013BCE3C243CE21B2D040000420A73CF2900B00D0210424F2405400CE219F3C5E
:20C5C8003C4092213D40D2213E400A00B013BCE3C243CE21B2D020000420913CF2900B00B6
:20C5E800D0210424F2405400CE21893C3C4088213D40D2213E400A00B013BCE3C243CE216D
:20C60800B2D0100004207B3CF2900B00D0210424F2405400CE21733C3C407E213D40D22150
:20C628003E400A00B013BCE3C243CE21B2D20420663CF2900B00D0210424F2405400CE21AF
:20C648005E3C3C4074213D40D2213E400A00B013BCE3C243CE21A2D20420513CF2900B0027
:20C66800D0210424F2405400CE21493C3C406A213D40D2213E400A00B013BCE3C243CE214A
:20C68800A2D304203C3CF2900B00D0210424F2405400CE21343C3C4060213D40D2213E400B
:20C6A8000A00B013BCE3C243CE2192D30420273CD293D0210424F2405400CE21203CA2C372
:20C6C8006001F2430018F2430118F2430218F2430318A2D36001B240805ACC0132C203430E
:20C6E800B24004A520010B3CF2405200CE21073CF2405200CE21033CF2405400CE21100141
:20C70800C293D0210C255F42D1213F803300F2243F800D003F900A0004283F802000192412
:20C72800F53C5F060018504F32C7D6C80000B0C800008AC8000064C800003EC8000018C831
:20C748000000F2C70000CCC70000A6C7000080C70000D293D0210720F2400A001122B240F3
:20C76800C4211222DF3CF2405200CE21D2431122B240CE211222D63CD293D0210720F240EC
:20C788000A001122B240BA211222CC3CF2405200CE21D2431122B240CE211222C33CD29317
:20C7A800D0210720F2400A001122B240B0211222B93CF2405200CE21D2431122B240CE2162
:20C7C8001222B03CD293D0210720F2400A001122B240A6211222A63CF2405200CE21D243EE
:20C7E8001122B240CE2112229D3CD293D0210720F2400A001122B2409C211222933CF24040
:20C808005200CE21D2431122B240CE2112228A3CD293D0210720F2400A001122B24092211B
:20C828001222803CF2405200CE21D2431122B240CE211222773CD293D0210720F2400A00C4
:20C848001122B240882112226D3CF2405200CE21D2431122B240CE211222643CD293D0215F
:20C868000720F2400A001122B2407E2112225A3CF2405200CE21D2431122B240CE211222EF
:20C88800513CD293D0210720F2400A001122B24074211222473CF2405200CE21D24311221E
:20C8A800B240CE2112223E3CD293D0210720F2400A001122B2406A211222343CF240520050
:20C8C800CE21D2431122B240CE2112222B3CD293D0210720F2400A001122B240602112220A
:20C8E800213CF2405200CE21D2431122B240CE211222183CD293D0210324F2405200CE21BF
:20C90800D2431122B240CE2112220C3CF2405200CE21D2431122B240CE211222033CF24029
:20C928005400CE2110015F4254211F837D241F8354241F837220F2D080000A02C2935521DB
:20C948000724F290090055210528F2425521023CD2435521B2B01000022021205D42552119
:20C968003C42B01350E2829C1403032C82431403073C5D4255213C42B01350E2828C14030C
:20C9880082931403572092535022B290F5015022512882435022B2D0100002204B3C9292DC
:20C9A80012031403072C5D4255213C42B01350E2825C14039292120314033C2892421203F6
:20C9C800140392535022B290B90B5022332882435022B2F0EFFF02202D3CF2F07F000A024F
:20C9E800829356210320B240E80356211E425022CF0E1F53824F50221E9258210428F2D0B1
:20CA080080000202033CF2F07F0002029292562150221028824350220D3CF2F07F000A02B4
:20CA2800F2D080000202063CF2F07F000A02F2F07F0002025F425A211F837B241F8352241F
:20CA48001F837020F2D040000A02C2935B210724F29009005B210528F2425B21023CD2435B
:20CA68005B21B2B02000022021205D425B213C42B01350E2829C1603032C82431603073C38
:20CA88005D425B213C42B01350E2828C160382931603552092535222B290F50152224F28BA
:20CAA80082435222B2D020000220493C929212031603072C5D425B213C42B01350E2825CFB
:20CAC80016039292120316033A2892421203160392535222B290B90B52223128B2F0DFFFD3
:20CAE80002202D3CF2F0BF000A0282935C210320B240E8035C211E425222CF0E1F53824FF3
:20CB080052221E925E210428F2D040000202033CF2F0BF00020292925C2152221028824342
:20CB280052220D3CF2F0BF000A02F2D040000202063CF2F0BF000A02F2F0BF0002021001D8
:20CB4800B0137CE2B013C6D1B01346D5B01308DBB0130ECDD2926F206E20342492B30220F0
:20CB68001E20D2536F20F29064006F200220C2436F205F426F20FF9005000A202320A2B30A
:20CB880002202020C2935A210520D2435A21E2C24302183CC2435A21E2D24302133C82938C
:20CBA800062010203E40B0207C407E007D400900B013B0D85C930620F2B00F00B0200220C6
:20CBC800B01352E3B2B200200424B2C20020B013A6CFB2B0800002202024B2F07FFF022053
:20CBE800B2B0000102201924D2536E20F29064006E200220C2436E205F426E20FF4003001E
:20CC08000A20D2536E20F29064006E200220C2436E205F426E20DF430A2092B300200424FE
:20CC280092C30020B01380DEB2B0000100200524B2F0FFFE0020B013C2DFA2B300200224EC
:20CC4800A2C30020A2B200200424A2C20020B0130CD8B2B0000400200524B2F0FFFB002015
:20CC6800B013FAE2B2B0000200200524B2F0FFFD0020B01348D992B30420022492C30420B6
:20CC8800A2B304200424A2C30420B0133CE3A2B204200424A2C20420B0132AE1B2B2042002
:20CCA8000424B2C20420B01362E1B2B0100004200524B2F0EFFF0420B013EADDB2B0200027
:20CCC80004200324B2F0DFFF0420B2B0400004200324B2F0BFFF0420B2B0800004200324BF
:20CCE800B2F07FFF0420B2B0000104200324B2F0FFFE0420B2B0000204202C27B2F0FFFDFE
:20CD08000420283F03430A144A43B240E8035621B240F4015821D2435521C2435421B240E4
:20CD2800E8035C21B240F4015E21D2435B21E2435A21F2B04000010201245A435A93032431
:20CD4800B0133EDD593C1E143D407CC43E401D001D830E73FD230D93FB231D161E143D40ED
:20CD68007CC43E401D001D830E73FD230D93FB231D161E143D407CC43E401D001D830E73F3
:20CD8800FD230D93FB231D161E143D407CC43E401D001D830E73FD230D93FB231D16C243B9
:20CDA8005421D2435A211E143D407CC43E401D001D830E73FD230D93FB231D16B01368E39C
:20CDC8007C407E007D4019007E400A003F402C22B0130EDC7C4070007D4019007E400A002F
:20CDE8003F402C22B0130EDC7C4070007D426E423F404022B0130EDCB013D0D0B01360CE34
:20CE0800B013A6E2B0137CD40D143D4027681D83FE230D160343F2D020000302B01378DC57
:20CE28001F431FF200203E4000011EF200200EDF4A4A0EDA0E930E20E2C34302D2C34302AC
:20CE4800F2C22202E2C26202C2435421D2435A21E2C243020A1610010A143C400500B01364
:20CE6800C4DECA0C3E40B0207C407E007D403200B013B0D83A90490003283A90D000672809
:20CE88003A90D80003283A90630158283A906E0103283A90FB0149283A90070203283A90AC
:20CEA800940239283A909F0203283A902A0329283A903C0303283A90940319283A9098035A
:20CEC8000D283A90D1030A2CF2400500B020F2404500C320F2404100C420413CC243B02037
:20CEE800F2402C00C320F2404100C420383CF2400500B020F2404500C320F2404100C42066
:20CF08002E3CF2400500B020F2404500C320F2404100C420243CF2400500B020F240450009
:20CF2800C320F2404100C4201A3CC243B020F2402C00C320F2404100C420113CC243B020CA
:20CF4800F2402C00C320F2404100C420083CC243B020F2402C00C320F2404100C4203F4001
:20CF6800B0207C407E007D4032007E401F00B0130EDC3E40B0207C4070007D403200B013FA
:20CF8800B0D8D243B0203F40B0207C4070007D4032007E401F00B0130EDC0A1610013E4079
:20CFA800B0207C407E007D406100B013B0D8F2901000B1207620F290A000B2207220F290F5
:20CFC800EF00B3206E20F2901700B4206A20F24003001422F240500015221F435FD2B52076
:20CFE800C24F1922D242B6201A225F42B7205FC3C24F1B22D2926F206E204524D2536F2031
:20D00800F29064006F200220C2436F205F426F205F4F0A207F90030039245F9337247F900A
:20D0280005001C247F90090015205E426F20D2926F206E202B245E537E90640001204E4382
:20D048004D4EFD9005000A2021207FD00500C24E6F201C3C5F42B8205FC3183C5E426F20C7
:20D06800D2926F206E2012245E537E90640001204E434D4EFD9009000A2008207FD0090041
:20D08800C24E6F20033C5F42B8205FC3C24F1C22B01324E2D2926F206E201520B01368E333
:20D0A800123C92B302200F2092D30220D2536E20F29064006E200220C2436E205F426E20F2
:20D0C800FF4009000A2010013E40B0207C407E007D400F00B013B0D85C933720C24360215A
:20D0E800F24024006121D242B3206221D242B2206321D242B1206421D242B0206521B2D026
:20D10800000202203E40B0207C4070007D400600B013B0D85C932420D242B0207E21D24291
:20D12800B1207F21D242B2208021D242B3208121D242B4208221D242B5208321D242B62064
:20D148008421D242B72085210B3CB2F0FFFD0220B240FA005621B2407D005821E2435421A5
:20D168003E40B0207C4070007D400F00B013B0D85C930C24B2F0FFFB0220B240FA005C21D0
:20D18800B2407D005E21E2435A210F3CD242B3206621D242B2206721D242B1206821D24250
:20D1A800B0206921B2D000040220B2B0000202200424B2B0000402200120FF3F1001F2903D
:20D1C800BF005AF91C20F290F00071F91820F290DF0072F91420F290D00079F91020F2906F
:20D1E80020007AF90C20F2900E0098F90820F2901C00FEFF0420F290FB00FFFF3424F2900B
:20D20800B0005AF95320F290400071F94F20F2904F0072F94B20F290400079F94720F29031
:20D228006F007AF94320F2900F0098F93F20F2901C00FEFF3B20F290FB00FFFF3720E293E3
:20D2480010180320C2931118312432C20343A2C36001E2431018C2431118A2D36001034311
:20D2680032D20343233C32C2034392C36001F240B0005AF9F240400071F9F2404F0072F910
:20D28800F240400079F9F2406F007AF9F2400F0098F992D36001A2C36001E2431018C243DE
:20D2A8001118A2D36001034332D2034310016A14B01392D3674B474706432D3CC90ECA0F7E
:20D2C80009880A7319830A73C509C80A19530A630F184858001848D56548C40EC80F1E53E3
:20D2E8000F630F184858001848D4C84500001B83EB230D3CB01392D36A4BC90ECB0F1E53B8
:20D308000F630F184B5B00184BD9CB4A0000570316533692CD3717B3ED23B01392D3684B31
:20D328004848B01392D36B4B4B4BCA085A0EC80B580F38F00F0008DA3BF00F003B5003008C
:20D348003B9012001D20C90CCA0D1C530D630F184A5A00184AD96A4A4A4A3AB080000F2435
:20D36800C50CC90D1C530D630F184959001849D569493AF07F004949461809590AD90B5A2B
:20D388003890FF0F9B2364161001CA0CCB0D1C530D630F184B5B00184BDA100192C3300138
:20D3A800F2430402F2403F000602F240C0000202F24003000A02C2431802C2431A02F24008
:20D3C800B0000502C2430702F2D040000302F2B0400001020420F2404F000302033CF24079
:20D3E8006F000302F2400F001902F2400F001B02F2432402C2432602F2401F002202F240C8
:20D408007F002502F2407F002702F24080002302C2432B02F2434402F240F3004602C2438E
:20D428004202F2400C004A02F2434502F240F0004702F2B0400001020420F2400A004302A5
:20D44800033CF2400B004302F240FC006402F240F8006602F24003006202F2436502F24373
:20D468006702C2436302C2436B02C2431C02C2431D0210013E40B0207C4070007D402800A8
:20D48800B013B0D83F40F8005FF2B0207FD00600C24FB0203F40C0005FF2B2207FD00500B5
:20D4A800C24FB220E2C2B520E2D2B8203F40B0207C4070007D4028007E401100B0130EDCA0
:20D4C8003E40B0207C4070007D402900B013B0D83F400F005FF2B0207FD0C000C24FB020FA
:20D4E8003F400F005FF2B1207FD0C000C24FB1203F40B0207C4070007D4029007E4005005F
:20D50800B0130EDC3E40B0207C4070007D405100B013B0D83F40FC005FF2B1206FD3C24F93
:20D52800B120F2D01C00B2203F40B0207C4070007D4051007E400500B0130EDC1001D24244
:20D5480004188821D24205188921D24206188A21D24207188B21D24208188C21D242091851
:20D568008D21D2420A188E21D2420B188F21D2420C189021D2420D189121F29388213920CE
:20D58800F29389213620F2938A213320F2938B213020F2938C212D20F2938D212A20F29379
:20D5A8008E212720F2938F212420F29390212120F29391211E20F2402D008821F2404C0082
:20D5C8008921F24065008A21F2406E008B21F2406F008C21F24076008D21F2406F008E2117
:20D5E800F2402D008F21F24020009021F240200091211001B2F0FFFE02203E40B0207C4031
:20D608007E007D406100B013B0D85F42B6205F037FF007004F4F1F833D241F8331241F8392
:20D6280025241F8317241F830924C2435421D2435A21F2D22202E2D26202343CC2435421F9
:20D64800C2435A21B2D000010220F2C22202E2C26202283CC2435421C2435A21B2D00001DC
:20D668000220F2D22202E2D262021C3CF24003005421C2435A21F2D22202E2D26202123CB0
:20D68800F24003005421C2435A21F2D22202E2D26202083CD2435421C2435A21F2D2220222
:20D6A800E2D2620210015A142182C80C1548020007434D3CCC073D400C00B013A8E3CF08A1
:20D6C8000F5C1E4F0C001D4F0E00C608065C26522A461F4602000C58194C08001B4C0A0023
:20D6E8000D931B200E9319203E4032C43E903EC42D241A530F631E4602000F184E5E0018A8
:20D708006ED66E4E4E4E5E060018564E32C4CC0ACD0FCE09CF0B4613173C0C430C930B2027
:20D728000F9309200C9307200B930520CC09CD0AB013BCE3093C814E0000814D0200CC09C6
:20D74800CD0BCE0AB01306DF1548020017530795B12B2152551610014F141F426E053F8043
:20D76800060045242F8331243F800E0014242F834720C29311220420B240FF004E05403CA1
:20D788001E4212227F4E824E12224F4F824F4E05D2831122353CF2901400D0210A281F4247
:20D7A8004C055E42D021CE4FD121F2405400CE21273C5F42D021CE0F5E53C24ED0214F4FD9
:20D7C8001E424C05CF4ED1211B3CB2B0100040050220B01388C43C40D0210D433E404400C3
:20D7E800B01394E3D2C30202D2C32302093CB2B0100040050320C243CE21023CB01308C7B1
:20D808004B160013B2F0FEFE0220E2D343024F437F900A000F2C1E143D403C4D2E431D83A3
:20D828000E73FD230D93FB231D1603435F537F900A00F12B3E40B0207C407E007D40690073
:20D84800B013B0D8C293B0200320A2C20220023CA2D202202F431FF202203E400C001EF294
:20D8680002200EDF0E930920E2C34302D2C34302F2C22202E2C26202083CE2D34302D2D340
:20D888004302F2D22202E2D26202A2B302200520C2435421D2435A21043CD2435421C243C6
:20D8A8005A21E2C2430210012A14C90EC80DCA0C3C40B0200D433E404000B01394E3B013D4
:20D8C8003EE0CC0AB013DEDC4C930420B0137AE04C43343CCC08B013DEDC4C930420B01399
:20D8E8007AE04C432B3CB0133EE01C434CDAB013DEDC4C930420B0137AE04C431F3CB01320
:20D9080096DDCA0C4C43B01346DF4A9314247890090001205A43B01396DDC94C00001953A4
:20D928005A8304205C43B01346DF033C4C43B01346DF4A93EC23B0137AE05C4328161001AA
:20D94800A2C30220E2D343024F437F900A000F2C1E143D403C4D2E431D830E73FD230D93CE
:20D96800FB231D1603435F537F900A00F12B3E40B0207C4070007D406900B013B0D8C293E1
:20D98800B0200320B2C20220023CB2D202201F431FF202202E421EF202200EDF0E931A2013
:20D9A800B2B202200920E2C34302D2C34302F2C22202E2C26202083CE2D34302D2D34302E4
:20D9C800F2D22202E2D26202C2435421D2435A21E2C2430210013A143F4000003F9000009F
:20D9E80004243C400000B013AED61942CC01B240805ACC013F4032C43F903EC421243F4069
:20DA080044C43F9054C41C243A4054C43A8044C45A09384044C43C483D483E483F48C70CAF
:20DA2800CB0D1C530D630F184B5B00184BD76B4B4B4B5B0600185B4B32C44B131A83EB23B6
:20DA480079C239D0085A8249CC01B01312E43F4000003F90000008243A400000023C6A1318
:20DA68002A523A900000FB23371610014F14034332D20343B2900E002E03402082930820CB
:20DA880002249283082082930620022492830620B0132EC992534C22B29064004C22022834
:20DAA80082434C2292534E22B290F4014E22262882434E22D2B360020320F2C24302023C6B
:20DAC800F2D243021F431FF202202E431EF202200EDF0E930E24B2B0000404200F20F2B0E2
:20DAE80080FF21020320E2C22202083CE2D22202053CE2C22202B2F0FFFB04204B16001338
:20DB08005E420E185F4210184E4E8E105D420F180E5D4F4F8F105D4211180F5D3F930B2491
:20DB2800CD0F8D10C24D9221C24F9321C2439421C24395210C3CF2404E009221F240550066
:20DB48009321F2404C009421F2404C009521C2439621C2439721C2439821C2439921C243A7
:20DB68009A21C2439B213E9024000E2432C20343A2C36001C2430E18F24024000F18A2D3E0
:20DB88006001034332D2034310010F141F421E022F8307242F8332242F832D242F832724F2
:20DBA800303C034332D203430D143D4052D01D83FE230D16D2C31D02D2536E20F290640070
:20DBC8006E200220C2436E20D2B301020820D2C319025F426E20FF4005000A20123CD2D30A
:20DBE80019025F426E20FF4009000A200A3CB2D080000220063C92D30020033CB2D000016E
:20DC080000200F1600133A14CA0FC90EC80DC70CB0133EE0CC07B013DEDC4C930420B01307
:20DC28007AE04C43233CCC08B013DEDC4C930420B0137AE04C431A3CCC09B013DEDC4C930D
:20DC48000420B0137AE04C43113C49930C246C4AB013DEDC4C930420B0137AE04C43063C6F
:20DC68001A535983F423B0137AE05C43371610010A144A437A9006002C2C7C407E007D4216
:20DC88006E423F404422B0130EDC1E143D403C823E400E001D830E73FD230D93FB231D160F
:20DCA8003E40B0207C407E007D42B013B0D85C930C20C293B0200920C293B1200620C293C0
:20DCC800B2200320C293B32004245A537A900600D42B0A1610010A145A434E437E92232C5F
:20DCE8007CB080FF0320E2C32202023CE2D32202003C003C003C003C003CB0139AE1D2D35F
:20DD080022020D143D4003001D83FE230D160343D2C32202003C003C003C003C003C4C5C7F
:20DD28005E537E92DD2BB0133ADE5C9301204A43CC0A0A161001F2F0EF000302F2F0BF001C
:20DD48002202F2F07F0022020F433F9090011E2CF2B0400001020F20F2F0DF0003020D141B
:20DD68003D4027681D83FE230D1603431F533F909001EE2B0B3C1E143D403C823E400E003A
:20DD88001D830E73FD230D93FB231D1610014C43E2C32402E2D322024E437E921F2C4C5C71
:20DDA800003C003C003C003C003CB0139AE1D2D32202E2B3200201245CD30D143D4003007C
:20DDC8001D83FE230D160343D2C32202003C003C003C003C003C5E537E92E12BE2D3240284
:20DDE800100132C20343A2C36001D24288210418D24289210518D2428A210618D2428B21B9
:20DE08000718D2428C210818D2428D210918D2428E210A18D2428F210B18D24290210C1862
:20DE2800D24291210D18A2D36001034332D2034310014C43E2C32402E2D32202003C003CCD
:20DE4800003C003C003CB0139AE1D2D32202E2B3200201245C430D143D4003001D83FE2322
:20DE68000D160343D2C32202003C003C003C003C003CE2D3240210013E40B0207C407E00D8
:20DE88007D401500B013B0D87C407E007D4019007E400A003F402C22B0130EDCC293B020E6
:20DEA8000224A2D20020C293B3200224A2D30020C293B7200224B2D200201001CF0C1C437C
:20DEC800CD0FB013DCE3824C64010D143D40670A1D83FE230D160343B24010020007B24073
:20DEE8000002020782DF0A07B2D00300000792B30207FD23824300071C42120710010A1431
:20DF08001A4108001B410A000F184D5D00184DDC0F184F5F00184FDE0B9302200A930D2476
:20DF28000C430E43AD000100FD4FFFFF1C530E630E9BF82B02200C9AF52B0A1610014C939D
:20DF48000320E2C32202023CE2D32202003C003C003C003C003CB0139AE1D2D322020D1462
:20DF68003D4003001D83FE230D160343D2C32202003C003C003C003C003C100192D340054F
:20DF8800B2D000074005B2400C04540592C34005B2D003006A05B2D00C006A053C40D02158
:20DFA8000D433E404400B01394E33C4060210D433E406F00B01394E310013E40B0207C407E
:20DFC80070007D401500B013B0D87C4070007D4019007E400A003F402C22B0130EDCC29313
:20DFE800B0200324B2D000020020C293B7200324B2D00004002010010A141C530D630F1850
:20E008004D5D00184DDC2C4D1B4D02000B9302200C930F24CA0ECD0F1E530F630F184D5D30
:20E0280000184DDACD4300001C830B73F3230C93F1230A161001B0139AE1D2D322020D144A
:20E048003D4003001D83FE230D160343E2C322020D143D4003001D83FE230D160343D2C3E5
:20E0680022020D143D4003001D83FE230D1603431001E2C322020D143D4003001D83FE236D
:20E088000D160343B0139AE1D2D322020D143D4003001D83FE230D160343E2D322020D1443
:20E0A8003D4003001D83FE230D16034310010A142182CB0CCA0DCC0ECD0FCE0BCF0ACA0EEE
:20E0C800CB0F1A530B630F184B5B00184BDA1A4B0200A14B0000814A02003E5005000F6354
:20E0E800B01306DF21520A16100132D04000B2D01000860182438001B2F0F1FF8201B2D094
:20E1080006008201B240F3008401003C034332C04000B2B000038E01FC23B24000018801C1
:20E1280010011F431FF202202E431EF202200EDF0E931224E2B374210C24B2D000040420C6
:20E14800D2B374210320E2C22202063CE2D22202033CB2F0FFFB04201001D2B37E21182428
:20E16800F2F0DF000302F2D040002202F2D0100003020D143D4027681D83FE230D1603437D
:20E18800F2F0BF002202F2F0EF000302B0130ECD1001D2C32402D2D322020F433F90581B15
:20E1A8000D2CD2B320020A200D143D400A001D83FE230D161F533F90581BF32BD2D3240224
:20E1C800100192C360010F433F900D000E2CCD0F5D06CC0F5C023E40FCFF0E8C9E4D54C47A
:20E1E80000001F533F900D00F22B92D3600110011F14034332D20343A2921E050D20D28339
:20E20800F020C293F02008241E42F2207F4E824EF2204F4F824F0E051E1600137C407E0031
:20E228007D4009007E400E003F401422B0130EDC7C407E007D426E423F404822B0130EDCA3
:20E24800B2406400062010010B430D9303343DE31D531BD30C9303343CE31C533BE3B01341
:20E268007EE31BB302243CE31C532BB302243EE31E531001B013F2E0B01384DFB01310E49A
:20E28800B013D0E23C4000200D433E406001B01394E3B013CAE1034332D2034310017C4031
:20E2A8007E007D4017007E400A003F403622B0130EDC7C4070007D4017007E400A003F4071
:20E2C8002222B0130EDC1001B240401F1203B240401F1403B240401F1603B240E000040323
:20E2E800B240E0000603B24012020003A2D200031001A2D3022092B302200E20E2D3430284
:20E30800D2D34302F2D22202E2D26202E2C24302C2435A21D2435421100131400028B013AB
:20E32800CEE30C930224B013DED90C43B01348CBB013E6E3D2B36A210420F2F07F0003029A
:20E34800033CF2D0800003021001D2431422F24006001522B01324E2B240E8030820100185
:20E3680092D30220E2D34302D2D34302E2C24302B013FCD510010E430F4C1C435F020E6EB4
:20E388000E9D01280E8D0C6CF92B1001CF0C0E9306244D4D1F53CF4DFFFF1E83FB231001BD
:20E3A8000E4312C35C0001280E5D5D020C93F9230C4E1001CF0C0E9305241F53FF4DFFFF59
:20E3C8001E83FB231001B240805ACC01B013A4D31C4310011D830230CD180C5C10010343AC
:20E3E800FF3F0343FF3F0343FF3F0343FF3F0343FF3F0343FF3F0343FF3F0343FF3F0343F5
:0CE40800FF3F0343FF3F034310011001DE
:02EFFE0022E30C
:00000001FF
